:100000000C942A000C9447000C9447000C94470071
:100010000C9447000C9447000C9447000C94470044
:100020000C9447000C9447000C9447000C94470034
:100030000C9447000C9447000C9447000C94470024
:100040000C9447000C9447000C9447000C94470014
:100050000C94470011241FBECFE5D8E0DEBFCDBF12
:1000600010E0A0E6B0E0E0E3FAE202C005900D92F5
:10007000A638B107D9F710E0A6E8B0E001C01D929C
:10008000AA38B107E1F70E94FB110C9416150C94E5
:100090000000EF92FF920F931F937B018C0120E0F1
:1000A00030E040E05FE40E94490388238CF0C801FF
:1000B000B70120E030E040E05FE40E94C1010E940F
:1000C000A9039B01AC01205030404040504806C07D
:1000D000C801B7010E94A9039B01AC01B901CA0183
:1000E0001F910F91FF90EF900895A0E0B0E0EBE733
:1000F000F0E00C94DF14DC012B01FA019C919230AA
:1001000008F439C1EB018881823008F433C194309E
:1001100069F4843009F02FC111969C91119789815F
:10012000981709F428C1ADE7B0E025C1843009F47F
:1001300021C18230A9F4923009F01DC19A01AD01AC
:1001400088E0EA010990AE01E90109929E0181501F
:10015000C1F7E201898111969C918923818308C1AD
:10016000923009F407C112962D903C901397EB0141
:100170008A819B811496AD90BD90CD90DC901797AD
:10018000EC80FD800E811F819101281B390BB90184
:1001900037FF04C066277727621B730B6032710537
:1001A0000CF061C0121613066CF537014801062EDB
:1001B00004C096948794779467940A94D2F721E0C8
:1001C00030E040E050E004C0220F331F441F551FB1
:1001D0006A95D2F721503040404050402E213F21B7
:1001E00040235123211531054105510521F021E01E
:1001F00030E040E050E079018A01E628F72808293C
:1002000019293CC0232BD1F1260E371E350146019A
:10021000062E04C096948794779467940A94D2F734
:1002200021E030E040E050E004C0220F331F441FC3
:10023000551F6A95D2F721503040404050402A2146
:100240003B214C215D21211531054105510521F04E
:1002500021E030E040E050E059016A01A628B728CB
:10026000C828D9280BC0821593052CF01C01AA249C
:10027000BB24650103C0EE24FF24870111969C91E5
:10028000D20111968C91981709F445C0992339F041
:10029000A80197012A193B094C095D0906C0A6016E
:1002A00095012E193F09400B510B57FD08C01182D3
:1002B0003382228224833583468357831DC081E0A5
:1002C00081833382228288279927DC01821B930B4A
:1002D000A40BB50B84839583A683B7830DC0220F2F
:1002E000331F441F551F24833583468357838281E0
:1002F000938101979383828324813581468157813D
:10030000DA01C9010197A109B1098F5F9F4FAF4F72
:10031000BF4328F30BC0918333822282EA0CFB1C7B
:100320000C1D1D1DE482F5820683178383E0808304
:10033000248135814681578157FF1AC0C901AA27F8
:1003400097FDA095BA2F81709070A070B0705695EF
:10035000479537952795822B932BA42BB52B848318
:100360009583A683B7838281938101969383828349
:10037000DF0101C0D201CD01CDB7DEB7E2E10C94BF
:10038000FB14A0E2B0E0E7ECF1E00C94EB1469831D
:100390007A838B839C832D833E834F835887E9E048
:1003A000EE2EF12CEC0EFD1ECE010196B7010E943F
:1003B000D2048E010F5E1F4FCE010596B8010E9438
:1003C000D2048A8991E089278A8BC701B801AE01DE
:1003D000475E5F4F0E9475000E94FD03A096E6E015
:1003E0000C940715A0E2B0E0E8EFF1E00C94EB14F8
:1003F00069837A838B839C832D833E834F835887C5
:10040000F9E0EF2EF12CEC0EFD1ECE010196B701A6
:100410000E94D2048E010F5E1F4FCE010596B801D7
:100420000E94D204C701B801AE01475E5F4F0E942F
:1004300075000E94FD03A096E6E00C940715A0E26B
:10044000B0E0E5E2F2E00C94DF1469837A838B83F9
:100450009C832D833E834F835887CE010196BE0136
:10046000675F7F4F0E94D204CE010596BE016F5E8A
:100470007F4F0E94D2049985923088F0898982301A
:10048000C8F0943019F4823051F404C0843029F457
:10049000923081F48DE790E0C6C0923049F420E0BC
:1004A0009A858A89981321E02A87CE010996BBC0D4
:1004B000823049F420E09A858A89981321E02A8BBA
:1004C000CE014196B0C02D843E844F8458886D88FB
:1004D0007E888F88988CEE24FF248701AA24BB2471
:1004E000650140E050E060E070E0E0E0F0E0C10174
:1004F00081709070892BE9F0E60CF71C081D191D1E
:100500009A01AB012A0D3B1D4C1D5D1D80E090E062
:10051000A0E0B0E0E614F7040805190520F481E036
:1005200090E0A0E0B0E0BA01A901480F591F6A1F8E
:100530007B1FAA0CBB1CCC1CDD1C97FE08C081E0F5
:1005400090E0A0E0B0E0A82AB92ACA2ADB2A3196B6
:10055000E032F10549F0660C771C881C991C569412
:10056000479437942794C3CFFA85EA892B893C892D
:100570008B859C85280F391F2E5F3F4F17C0CA01FE
:1005800081709070892B61F016950795F794E79428
:1005900080E090E0A0E0B0E8E82AF92A0A2B1B2BC3
:1005A00076956795579547952F5F3F4F77FDE7CF36
:1005B0000CC0440F551F661F771F17FD4160EE0CDE
:1005C000FF1C001F111F21503040403090E05907A0
:1005D00090E0690790E4790760F32B8F3C8FDB0193
:1005E000CA018F779070A070B07080349105A1051A
:1005F000B10561F447FD0AC0E114F10401051105DC
:1006000029F0405C5F4F6F4F7F4F40781A8EFE1786
:1006100011F081E08A8F4D8F5E8F6F8F78A383E01A
:10062000898FCE0149960E94FD03A096E2E10C94C9
:10063000FB14A8E1B0E0EFE1F3E00C94EB14698364
:100640007A838B839C832D833E834F83588789E0F5
:10065000E82EF12CEC0EFD1ECE010196B7010E9492
:10066000D2048E010F5E1F4FCE010596B8010E9485
:10067000D2048985823040F08989823028F0C70110
:10068000B8010E944A0501C08FEF6896E6E00C941D
:100690000715A8E1B0E0EFE4F3E00C94EB146983F4
:1006A0007A838B839C832D833E834F83588789E095
:1006B000E82EF12CEC0EFD1ECE010196B7010E9432
:1006C000D2048E010F5E1F4FCE010596B8010E9425
:1006D000D2048985823040F08989823028F0C701B0
:1006E000B8010E944A0501C08FEF6896E6E00C94BD
:1006F0000715A8E1B0E0EFE7F3E00C94EB14698391
:100700007A838B839C832D833E834F83588789E034
:10071000E82EF12CEC0EFD1ECE010196B7010E94D1
:10072000D2048E010F5E1F4FCE010596B8010E94C4
:10073000D2048985823040F08989823028F0C7014F
:10074000B8010E944A0501C081E06896E6E00C9479
:100750000715ACE0B0E0EFEAF3E00C94EF14698326
:100760007A838B839C83CE010196BE016B5F7F4FA2
:100770000E94D2048D81823061F1823050F1843048
:1007800021F48E81882351F12EC02F81388537FDC9
:1007900020C06E812F3131051CF06623F9F023C093
:1007A0008EE190E0821B930B29853A854B855C8511
:1007B00004C056954795379527958A95D2F76623B5
:1007C000B1F050954095309521953F4F4F4F5F4F79
:1007D0000EC020E030E040E050E009C02FEF3FEFD6
:1007E0004FEF5FE704C020E030E040E050E8B9019F
:1007F000CA012C96E2E00C940B15DF92EF92FF9267
:100800000F931F93FC01E480F58006811781D1804E
:100810008081823048F480E090E0A0E1B0E0E82AF6
:10082000F92A0A2B1B2BA5C0843009F49FC0823003
:1008300021F4EE24FF24870105C0E114F104010531
:10084000110519F4E0E0F0E096C0628173819FEF3A
:10085000623879070CF05BC022E83FEF261B370BAC
:100860002A3131052CF020E030E040E050E02AC091
:10087000B801A701022E04C0769567955795479554
:100880000A94D2F781E090E0A0E0B0E004C0880FC5
:10089000991FAA1FBB1F2A95D2F70197A109B10979
:1008A0008E219F21A023B1230097A105B10521F03E
:1008B00081E090E0A0E0B0E09A01AB01282B392B59
:1008C0004A2B5B2BDA01C9018F779070A070B07052
:1008D00080349105A105B10539F427FF09C0205CDA
:1008E0003F4F4F4F5F4F04C0215C3F4F4F4F5F4F13
:1008F000E0E0F0E02030A0E03A07A0E04A07A0E402
:100900005A0710F0E1E0F0E079018A0127C0603871
:10091000710564F5FB01E158FF4FD801C7018F77DE
:100920009070A070B07080349105A105B10539F4C4
:10093000E7FE0DC080E490E0A0E0B0E004C08FE3EB
:1009400090E0A0E0B0E0E80EF91E0A1F1B1F17FFA1
:1009500005C016950795F794E794319687E01695AC
:100960000795F794E7948A95D1F705C0EE24FF2404
:100970008701EFEFF0E06E2F679566276795902F60
:100980009F77D794DD24D7948E2F8695492F462BB9
:10099000582F5D29B701CA011F910F91FF90EF9069
:1009A000DF900895FC01DB01408151812281622F9B
:1009B0006F7770E0221F2227221F9381892F880FD3
:1009C000822B282F30E0991F9927991F11969C930D
:1009D000119721153105A9F54115510561057105DD
:1009E00011F482E037C082E89FEF13969C938E93B8
:1009F00012979A01AB0167E0220F331F441F551F66
:100A00006A95D1F783E08C930DC0220F331F441FEA
:100A1000551F12968D919C911397019713969C9355
:100A20008E931297203080E0380780E0480780E4FA
:100A3000580758F314962D933D934D935C93179755
:100A400008952F3F310579F4411551056105710570
:100A500019F484E08C93089564FF03C081E08C93C3
:100A600012C01C9210C02F57304013963C932E9307
:100A7000129783E08C9387E0440F551F661F771F02
:100A80008A95D1F7706414964D935D936D937C9322
:100A9000179708951F93DC01FB019C91923008F495
:100AA00047C08081823008F443C0943051F41196DD
:100AB0001C91843099F58181682F70E0611B710968
:100AC0003FC0843021F0923031F48230B9F181811D
:100AD000882389F12DC011961C9111978230F1F075
:100AE00081811817D9F412962D913C911397828128
:100AF00093818217930794F028173907BCF0149656
:100B00008D919D910D90BC91A02D248135814681C0
:100B10005781281739074A075B0718F4112341F05A
:100B20000AC082179307A407B50740F4112319F0F0
:100B300061E070E005C06FEF7FEF02C060E070E041
:100B4000CB011F9108950F931F93DF93CF93CDB7E0
:100B5000DEB7C654D0400FB6F894DEBF0FBECDBF8F
:100B6000FE01ED5BFF4F80E090E0A8ECB2E48083F3
:100B70009183A283B3838E01015C1F4FFE01ED5B65
:100B8000FF4F608171818281938120E030E04AEFE4
:100B900054E40E941F02DC01CB01F80180839183A1
:100BA000A283B383FE01FF9660817181828193816C
:100BB00020E030E040E85FE30E94790388232CF4D2
:100BC00081E090E09EAF8DAF46C0FE01FF96608150
:100BD00071818281938120E03FEF4FE757E40E94CB
:100BE0001903181664F5FE01ED5BFF4F60817181FA
:100BF0008281938120E030E040E251E40E941F02B4
:100C0000DC01CB01BC01CD010E944900DC01CB011C
:100C10009EAF8DAF0FC088EC90E09CAF8BAF8BADDB
:100C20009CAD0197F1F79CAF8BAF8DAD9EAD019759
:100C30009EAF8DAF8DAD9EAD009769F716C0FE01DA
:100C4000FF9660817181828193810E944900DC015D
:100C5000CB019EAF8DAF8DAD9EAD9AAF89AF89AD03
:100C60009AAD0197F1F79AAF89AF81E46FEF0E94D7
:100C70001F0F82E460E041E00E94BA0B82E462E070
:100C800041E00E94BA0B82E461E041E00E94BA0BAD
:100C900088E30E94290980E090E0A0E8BFE38DABE3
:100CA0009EABAFABB8AF6DA97EA98FA998AD20E080
:100CB00030E04AEF54E40E941F02DC01CB0189AB13
:100CC0009AABABABBCAB69A97AA98BA99CA920E074
:100CD00030E040E85FE30E94790388232CF481E050
:100CE00090E098AB8FA73FC069A97AA98BA99CA96E
:100CF00020E03FEF4FE757E40E94190318164CF528
:100D00006DA97EA98FA998AD20E030E040E251E4C2
:100D10000E941F02DC01CB01BC01CD010E944900F1
:100D2000DC01CB0198AB8FA70FC088EC90E09EA7A9
:100D30008DA78DA59EA50197F1F79EA78DA78FA5DD
:100D400098A9019798AB8FA78FA598A9009769F7E5
:100D500014C069A97AA98BA99CA90E944900DC0149
:100D6000CB0198AB8FA78FA598A99CA78BA78BA524
:100D70009CA50197F1F79CA78BA78EE00E942909FB
:100D800080E090E0A0E8BFE38FA398A7A9A7BAA747
:100D90006FA178A589A59AA520E030E04AEF54E438
:100DA0000E941F02DC01CB018BA39CA3ADA3BEA3B9
:100DB0006BA17CA18DA19EA120E030E040E85FE323
:100DC0000E94790388232CF481E090E09AA389A300
:100DD0003FC06BA17CA18DA19EA120E03FEF4FE71A
:100DE00057E40E94190318164CF56FA178A589A540
:100DF0009AA520E030E040E251E40E941F02DC01AD
:100E0000CB01BC01CD010E944900DC01CB019AA3BA
:100E100089A30FC088EC90E098A38F8F8F8D98A145
:100E20000197F1F798A38F8F89A19AA101979AA3AF
:100E300089A389A19AA1009769F714C06BA17CA12D
:100E40008DA19EA10E944900DC01CB019AA389A338
:100E500089A19AA19E8F8D8F8D8D9E8D0197F1F71F
:100E60009E8F8D8F81E00E94290980E090E0A0E2B2
:100E7000B1E4898F9A8FAB8FBC8F698D7A8D8B8D02
:100E80009C8D20E030E04AEF54E40E941F02DC0118
:100E9000CB018D8B9E8BAF8BB88F6D897E898F89AF
:100EA000988D20E030E040E85FE30E9479038823DA
:100EB0002CF481E090E09C8B8B8B3FC06D897E8908
:100EC0008F89988D20E03FEF4FE757E40E94190388
:100ED00018164CF5698D7A8D8B8D9C8D20E030E055
:100EE00040E251E40E941F02DC01CB01BC01CD01B4
:100EF0000E944900DC01CB019C8B8B8B0FC088ECDE
:100F000090E09A8B898B89899A890197F1F79A8B5E
:100F1000898B8B899C8901979C8B8B8B8B899C8976
:100F2000009769F714C06D897E898F89988D0E941A
:100F30004900DC01CB019C8B8B8B8B899C89988B26
:100F40008F878F8598890197F1F7988B8F8786E037
:100F50000E94290980E090E0A0E8BFE38B879C878E
:100F6000AD87BE876B857C858D859E8520E030E0D2
:100F70004AEF54E40E941F02DC01CB018F83988763
:100F8000A987BA876F81788589859A8520E030E0C6
:100F900040E85FE30E94790388232CF481E090E02D
:100FA0009E838D833FC06F81788589859A8520E0F7
:100FB0003FEF4FE757E40E94190318164CF56B8575
:100FC0007C858D859E8520E030E040E251E40E94E2
:100FD0001F02DC01CB01BC01CD010E944900DC01F4
:100FE000CB019E838D830FC088EC90E09C838B8324
:100FF0008B819C810197F1F79C838B838D819E81EE
:1010000001979E838D838D819E81009769F714C01F
:101010006F81788589859A850E944900DC01CB0122
:101020009E838D838D819E819A83898389819A8114
:101030000197F1F79A838983CA5BDF4F0FB6F89463
:10104000DEBF0FBECDBFCF91DF911F910F910895ED
:10105000DF93CF93CDB7DEB76C970FB6F894DEBFB2
:101060000FBECDBF82E460E041E00E94BB0C80E097
:1010700090E0A0E0B0E4898F9A8FAB8FBC8F698D30
:101080007A8D8B8D9C8D20E030E04AEF54E40E94F5
:101090001F02DC01CB018D8B9E8BAF8BB88F6D89CE
:1010A0007E898F89988D20E030E040E85FE30E94E0
:1010B000790388232CF481E090E09C8B8B8B3FC0DC
:1010C0006D897E898F89988D20E03FEF4FE757E447
:1010D0000E94190318164CF5698D7A8D8B8D9C8DA5
:1010E00020E030E040E251E40E941F02DC01CB012D
:1010F000BC01CD010E944900DC01CB019C8B8B8B94
:101100000FC088EC90E09A8B898B89899A89019726
:10111000F1F79A8B898B8B899C8901979C8B8B8BA0
:101120008B899C89009769F714C06D897E898F89A6
:10113000988D0E944900DC01CB019C8B8B8B8B89A5
:101140009C89988B8F878F8598890197F1F7988B69
:101150008F8782E460E040E00E94BB0C80E090E07A
:10116000A0E0B0E48B879C87AD87BE876B857C85CC
:101170008D859E8520E030E04AEF54E40E941F02F6
:10118000DC01CB018F839887A987BA876F81788527
:1011900089859A8520E030E040E85FE30E9479038A
:1011A00088232CF481E090E09E838D833FC06F8183
:1011B000788589859A8520E03FEF4FE757E40E94C4
:1011C000190318164CF56B857C858D859E8520E06E
:1011D00030E040E251E40E941F02DC01CB01BC017F
:1011E000CD010E944900DC01CB019E838D830FC09D
:1011F00088EC90E09C838B838B819C810197F1F735
:101200009C838B838D819E8101979E838D838D81AD
:101210009E81009769F714C06F81788589859A85CA
:101220000E944900DC01CB019E838D838D819E81CC
:101230009A83898389819A810197F1F79A838983B7
:101240006C960FB6F894DEBF0FBECDBFCF91DF9185
:101250000895DF93CF93CDB7DEB72F970FB6F894ED
:10126000DEBF0FBECDBF8F8781E46F850E94610F07
:1012700082E461E040E00E94BB0C0E94280880E00C
:1012800090E0A0E8BFE38B879C87AD87BE876B8526
:101290007C858D859E8520E030E04AEF54E40E94F5
:1012A0001F02DC01CB018F839887A987BA876F81E2
:1012B000788589859A8520E030E040E85FE30E94E8
:1012C000790388232CF481E090E09E838D833FC0D6
:1012D0006F81788589859A8520E03FEF4FE757E455
:1012E0000E94190318164CF56B857C858D859E85AB
:1012F00020E030E040E251E40E941F02DC01CB011B
:10130000BC01CD010E944900DC01CB019E838D838D
:101310000FC088EC90E09C838B838B819C8101972C
:10132000F1F79C838B838D819E8101979E838D83B2
:101330008D819E81009769F714C06F8178858985BA
:101340009A850E944900DC01CB019E838D838D81AB
:101350009E819A83898389819A810197F1F79A8383
:1013600089832F960FB6F894DEBF0FBECDBFCF9105
:10137000DF910895DF93CF93CDB7DEB72F970FB6E8
:10138000F894DEBF0FBECDBF8F8781E46F850E94CA
:10139000610F82E461E041E00E94BB0C0E942808DA
:1013A00080E090E0A0E8BFE38B879C87AD87BE8795
:1013B0006B857C858D859E8520E030E04AEF54E486
:1013C0000E941F02DC01CB018F839887A987BA870F
:1013D0006F81788589859A8520E030E040E85FE379
:1013E0000E94790388232CF481E090E09E838D8312
:1013F0003FC06F81788589859A8520E03FEF4FE770
:1014000057E40E94190318164CF56B857C858D8571
:101410009E8520E030E040E251E40E941F02DC01A2
:10142000CB01BC01CD010E944900DC01CB019E83B0
:101430008D830FC088EC90E09C838B838B819C8193
:101440000197F1F79C838B838D819E8101979E8309
:101450008D838D819E81009769F714C06F81788597
:1014600089859A850E944900DC01CB019E838D838A
:101470008D819E819A83898389819A810197F1F771
:101480009A8389832F960FB6F894DEBF0FBECDBF27
:10149000CF91DF910895DF93CF9300D0CDB7DEB722
:1014A0009A8389830AC0E981FA8180810E94BA09FE
:1014B00089819A8101969A838983E981FA81808161
:1014C000882389F70F900F90CF91DF910895DF93D4
:1014D000CF93CDB7DEB72E970FB6F894DEBF0FBE11
:1014E000CDBF81E00E94290980E090E0A0E2B1E454
:1014F0008B879C87AD87BE876B857C858D859E8518
:1015000020E030E04AEF54E40E941F02DC01CB01EE
:101510008F839887A987BA876F81788589859A850F
:1015200020E030E040E85FE30E94790388232CF458
:1015300081E090E09E838D833FC06F8178858985AF
:101540009A8520E03FEF4FE757E40E9419031816F1
:101550004CF56B857C858D859E8520E030E040E2F2
:1015600051E40E941F02DC01CB01BC01CD010E94AD
:101570004900DC01CB019E838D830FC088EC90E095
:101580009C838B838B819C810197F1F79C838B8358
:101590008D819E8101979E838D838D819E81009791
:1015A00069F714C06F81788589859A850E94490002
:1015B000DC01CB019E838D838D819E819A838983FB
:1015C00089819A810197F1F79A8389832E960FB6C4
:1015D000F894DEBF0FBECDBFCF91DF910895DF93AA
:1015E000CF93CDB7DEB761970FB6F894DEBF0FBECD
:1015F000CDBF888B698B8889833048F4888988239C
:1016000031F08989813118F48989882319F480E8B7
:101610008F870DC08889813021F4898981588F870F
:1016200006C08889823019F4898981548F878F8513
:101630000E94290980E090E0A0E8BFE38B879C87A7
:10164000AD87BE876B857C858D859E8520E030E0EB
:101650004AEF54E40E941F02DC01CB018F8398877C
:10166000A987BA876F81788589859A8520E030E0DF
:1016700040E85FE30E94790388232CF481E090E046
:101680009E838D833FC06F81788589859A8520E010
:101690003FEF4FE757E40E94190318164CF56B858E
:1016A0007C858D859E8520E030E040E251E40E94FB
:1016B0001F02DC01CB01BC01CD010E944900DC010D
:1016C000CB019E838D830FC088EC90E09C838B833D
:1016D0008B819C810197F1F79C838B838D819E8107
:1016E00001979E838D838D819E81009769F714C039
:1016F0006F81788589859A850E944900DC01CB013C
:101700009E838D838D819E819A83898389819A812D
:101710000197F1F79A83898361960FB6F894DEBF3B
:101720000FBECDBFCF91DF910895DF93CF9300D04F
:10173000CDB7DEB789836A8389816A8140E00E94E0
:10174000BA0B0F900F90CF91DF910895DF93CF9355
:1017500000D00F92CDB7DEB78A836B838A816B810D
:101760000E94560E898389810F900F900F90CF9120
:10177000DF910895DF93CF9300D000D00F92CDB7C3
:10178000DEB789836A834B838981282F30E03D83CC
:101790002C838C819D818434910509F4B9C02C81FE
:1017A0003D812534310594F48C819D8182349105ED
:1017B00009F456C02C813D81233431050CF07CC0E6
:1017C0008C819D8181349105F9F0CDC02C813D81C2
:1017D0002236310509F444C08C819D818336910500
:1017E00034F42C813D812136310571F0BCC08C81EF
:1017F0009D818336910509F45FC02C813D8124369B
:10180000310509F485C0AFC08B818130A1F4AAE312
:10181000B0E0EAE3F0E08081482F8A81282F30E0B1
:1018200081E090E0022E02C0880F991F0A94E2F72F
:10183000842B8C9398C0AAE3B0E0EAE3F0E08081C7
:10184000482F8A81282F30E081E090E0022E02C0EC
:10185000880F991F0A94E2F7809584238C9383C0A4
:101860008B818130A1F4A7E3B0E0E7E3F0E0808171
:10187000482F8A81282F30E081E090E0022E02C0BC
:10188000880F991F0A94E2F7842B8C936CC0A7E30E
:10189000B0E0E7E3F0E08081482F8A81282F30E034
:1018A00081E090E0022E02C0880F991F0A94E2F7AF
:1018B000809584238C9357C08B818130A1F4A4E35D
:1018C000B0E0E4E3F0E08081482F8A81282F30E007
:1018D00081E090E0022E02C0880F991F0A94E2F77F
:1018E000842B8C9340C0A4E3B0E0E4E3F0E080817B
:1018F000482F8A81282F30E081E090E0022E02C03C
:10190000880F991F0A94E2F7809584238C932BC04B
:101910008B818130A1F4A1E3B0E0E1E3F0E08081CC
:10192000482F8A81282F30E081E090E0022E02C00B
:10193000880F991F0A94E2F7842B8C9314C0A1E3BB
:10194000B0E0E1E3F0E08081482F8A81282F30E089
:1019500081E090E0022E02C0880F991F0A94E2F7FE
:10196000809584238C930F900F900F900F900F9081
:10197000CF91DF910895DF93CF9300D000D00F92E5
:10198000CDB7DEB789836A834B838981282F30E006
:101990003D832C838C819D818434910509F4B9C0E9
:1019A0002C813D812534310594F48C819D818234D4
:1019B000910509F456C02C813D81233431050CF08A
:1019C0007CC08C819D8181349105F9F0CDC02C8142
:1019D0003D812236310509F444C08C819D818336D6
:1019E000910534F42C813D812136310571F0BCC064
:1019F0008C819D818336910509F45FC02C813D81E6
:101A00002436310509F485C0AFC08B818130A1F443
:101A1000ABE3B0E0EBE3F0E08081482F8A81282F30
:101A200030E081E090E0022E02C0880F991F0A94F6
:101A3000E2F7842B8C9398C0ABE3B0E0EBE3F0E0EB
:101A40008081482F8A81282F30E081E090E0022EAB
:101A500002C0880F991F0A94E2F7809584238C9323
:101A600083C08B818130A1F4A8E3B0E0E8E3F0E02B
:101A70008081482F8A81282F30E081E090E0022E7B
:101A800002C0880F991F0A94E2F7842B8C936CC0D4
:101A9000A8E3B0E0E8E3F0E08081482F8A81282FB6
:101AA00030E081E090E0022E02C0880F991F0A9476
:101AB000E2F7809584238C9357C08B818130A1F409
:101AC000A5E3B0E0E5E3F0E08081482F8A81282F8C
:101AD00030E081E090E0022E02C0880F991F0A9446
:101AE000E2F7842B8C9340C0A5E3B0E0E5E3F0E09F
:101AF0008081482F8A81282F30E081E090E0022EFB
:101B000002C0880F991F0A94E2F7809584238C9372
:101B10002BC08B818130A1F4A2E3B0E0E2E3F0E0DE
:101B20008081482F8A81282F30E081E090E0022ECA
:101B300002C0880F991F0A94E2F7842B8C9314C07B
:101B4000A2E3B0E0E2E3F0E08081482F8A81282F11
:101B500030E081E090E0022E02C0880F991F0A94C5
:101B6000E2F7809584238C930F900F900F900F9045
:101B70000F90CF91DF910895DF93CF9300D000D0E5
:101B8000CDB7DEB789836A838981282F30E03C8313
:101B90002B838B819C818434910509F46DC02B814A
:101BA0003C81253431058CF48B819C8182349105F4
:101BB000D9F12B813C81233431050CF049C08B8154
:101BC0009C8181349105E1F06AC02B813C812236F1
:101BD000310551F18B819C818336910534F42B8141
:101BE0003C812136310561F05AC08B819C8183365E
:101BF000910571F12B813C8124363105E9F14FC00B
:101C0000ABE3B0E0EBE3F0E08081482F8A81282F3E
:101C100030E081E090E0022E02C0880F991F0A9404
:101C2000E2F784278C933BC0A8E3B0E0E8E3F0E060
:101C30008081482F8A81282F30E081E090E0022EB9
:101C400002C0880F991F0A94E2F784278C9327C05B
:101C5000A5E3B0E0E5E3F0E08081482F8A81282FFA
:101C600030E081E090E0022E02C0880F991F0A94B4
:101C7000E2F784278C9313C0A2E3B0E0E2E3F0E044
:101C80008081482F8A81282F30E081E090E0022E69
:101C900002C0880F991F0A94E2F784278C930F9053
:101CA0000F900F900F90CF91DF910895DF93CF9316
:101CB00000D000D00F92CDB7DEB78A836B83198234
:101CC0008A81282F30E03D832C834C815D81443410
:101CD000510509F48EC08C819D818534910594F461
:101CE0002C813D812234310509F447C04C815D814E
:101CF000433451050CF05FC08C819D818134910586
:101D0000F1F094C02C813D8122363105B1F14C8136
:101D10005D814336510534F48C819D818136910576
:101D200071F084C02C813D812336310509F443C014
:101D30004C815D814436510509F45BC077C0E9E30D
:101D4000F0E08081482F50E08B81282F30E081E047
:101D500090E002C0880F991F2A95E2F79A01282384
:101D600039238B81882F90E0A90102C055954795B2
:101D70008A95E2F7CA01898359C0E6E3F0E08081E1
:101D8000482F50E08B81282F30E081E090E002C0A6
:101D9000880F991F2A95E2F79A01282339238B810E
:101DA000882F90E0A90102C0559547958A95E2F7E2
:101DB000CA0189833BC0E3E3F0E08081482F50E013
:101DC0008B81282F30E081E090E002C0880F991FBE
:101DD0002A95E2F79A01282339238B81882F90E0F6
:101DE000A90102C0559547958A95E2F7CA018983F2
:101DF0001DC0E0E3F0E08081482F50E08B81282F68
:101E000030E081E090E002C0880F991F2A95E2F748
:101E10009A01282339238B81882F90E0A90102C0E1
:101E2000559547958A95E2F7CA01898389810F9074
:101E30000F900F900F900F90CF91DF910895DF9347
:101E4000CF9300D000D0CDB7DEB789836A83898174
:101E5000282F30E03C832B838B819C818234910539
:101E6000D9F02B813C812334310534F48B819C8162
:101E70008134910561F01EC02B813C8123343105F2
:101E800081F08B819C818434910581F013C0EAE359
:101E9000F0E08A8180830EC0E7E3F0E08A818083EE
:101EA00009C0E4E3F0E08A81808304C0E1E3F0E06C
:101EB0008A8180830F900F900F900F90CF91DF91C8
:101EC0000895DF93CF9300D000D0CDB7DEB78983DC
:101ED0006A838981282F30E03C832B838B819C810E
:101EE00082349105D9F02B813C812334310534F4BF
:101EF0008B819C818134910561F01EC02B813C81D6
:101F00002334310581F08B819C818434910581F0EB
:101F100013C0EBE3F0E08A8180830EC0E8E3F0E0D9
:101F20008A81808309C0E5E3F0E08A81808304C070
:101F3000E2E3F0E08A8180830F900F900F900F9082
:101F4000CF91DF910895DF93CF9300D00F92CDB75B
:101F5000DEB789838981282F30E03B832A838A81F9
:101F60009B818434910509F448C02A813B81253442
:101F7000310584F48A819B818234910571F12A8133
:101F80003B81233431058CF58A819B818134910515
:101F9000E1F03AC02A813B8122363105F1F08A8195
:101FA0009B818336910534F42A813B8121363105AA
:101FB00061F02AC08A819B8183369105B1F02A8124
:101FC0003B8124363105C9F01FC0ABE3B0E0EBE341
:101FD000F0E0808180958C9317C0A8E3B0E0E8E33F
:101FE000F0E0808180958C930FC0A5E3B0E0E5E33D
:101FF000F0E0808180958C9307C0A2E3B0E0E2E33B
:10200000F0E0808180958C930F900F900F90CF918E
:10201000DF910895DF93CF9300D000D0CDB7DEB726
:102020008A8319828A81282F30E03C832B838B811D
:102030009C818434910509F43FC02B813C81253477
:10204000310584F48B819C818234910559F12B8177
:102050003C81233431055CF58B819C818134910571
:10206000E1F02EC02B813C8122363105D9F08B81E5
:102070009C818336910534F42B813C8121363105D6
:1020800061F01EC08B819C818336910581F02B818C
:102090003C812436310581F013C0E9E3F0E0808112
:1020A00089830EC0E6E3F0E08081898309C0E3E321
:1020B000F0E08081898304C0E0E3F0E080818983DF
:1020C00089810F900F900F900F90CF91DF9108951D
:1020D000DF93CF9300D000D00F92CDB7DEB78983C6
:1020E0006A834B838981282F30E03D832C838C8148
:1020F0009D818434910509F4B9C02C813D8125343A
:10210000310594F48C819D818234910509F456C087
:102110002C813D81233431050CF07CC08C819D8164
:1021200081349105F9F0CDC02C813D8122363105F5
:1021300009F444C08C819D818336910534F42C814F
:102140003D812136310571F0BCC08C819D81833683
:10215000910509F45FC02C813D812436310509F4D5
:1021600085C0AFC08B818130A1F4ABE3B0E0EBE37D
:10217000F0E08081482F8A81282F30E081E090E0D4
:10218000022E02C0880F991F0A94E2F7842B8C93C9
:1021900098C0ABE3B0E0EBE3F0E08081482F8A81A8
:1021A000282F30E081E090E0022E02C0880F991FB6
:1021B0000A94E2F7809584238C9383C08B818130CD
:1021C000A1F4A8E3B0E0E8E3F0E08081482F8A8141
:1021D000282F30E081E090E0022E02C0880F991F86
:1021E0000A94E2F7842B8C936CC0A8E3B0E0E8E398
:1021F000F0E08081482F8A81282F30E081E090E054
:10220000022E02C0880F991F0A94E2F7809584235A
:102210008C9357C08B818130A1F4A5E3B0E0E5E356
:10222000F0E08081482F8A81282F30E081E090E023
:10223000022E02C0880F991F0A94E2F7842B8C9318
:1022400040C0A5E3B0E0E5E3F0E08081482F8A815B
:10225000282F30E081E090E0022E02C0880F991F05
:102260000A94E2F7809584238C932BC08B81813074
:10227000A1F4A2E3B0E0E2E3F0E08081482F8A819C
:10228000282F30E081E090E0022E02C0880F991FD5
:102290000A94E2F7842B8C9314C0A2E3B0E0E2E34B
:1022A000F0E08081482F8A81282F30E081E090E0A3
:1022B000022E02C0880F991F0A94E2F780958423AA
:1022C0008C930F900F900F900F900F90CF91DF9104
:1022D0000895DF93CF9300D0CDB7DEB789836A83AB
:1022E0008A81982F9170898160E0492F0E94BB0CF0
:1022F0008A81882F90E08270907095958795982FAD
:10230000898161E0492F0E94BB0C8A81882F90E06F
:10231000847090709595879595958795982F89816C
:1023200062E0492F0E94BB0C8A81882F90E0887060
:102330009070959587959595879595958795982F04
:10234000898163E0492F0E94BB0C0F900F90CF91C1
:10235000DF910895DF93CF9300D0CDB7DEB78983A7
:102360006A838A81882F90E0807190709595879517
:10237000959587959595879595958795982F8981BA
:1023800064E0492F0E94BB0C8A81882F90E0807204
:102390009070959587959595879595958795959541
:1023A000879595958795982F898165E0492F0E949B
:1023B000BB0C8A81882F90E080749070082E892F42
:1023C000000C881F990B000C881F991F982F89817A
:1023D00066E0492F0E94BB0C8A81982F991F99278C
:1023E000991F898167E0492F0E94BB0C0F900F90C5
:1023F000CF91DF910895DF93CF93CDB7DEB7E89704
:102400000FB6F894DEBF0FBECDBF0E94A30582E4D5
:1024100064E00E94950B82E465E00E94950B82E4E3
:1024200066E00E94950B82E467E00E94950B82E4CF
:1024300068E00E94950B80E690E00E944B0A81E0E4
:102440006AE00E94EF0A88E690E00E944B0A82E070
:1024500061E00E94EF0A80E790E00E944B0A82E070
:102460006AE00E94EF0A86E790E00E944B0A82E44D
:1024700063E00E94A60B813009F093C08091870031
:102480008F5F8093870081E067E00E94EF0A809170
:1024900087009AE0692F0E94D314805D0E94BA09D8
:1024A00081E068E00E94EF0A809187009AE0692F3E
:1024B0000E94D314892F805D0E94BA0980E090E0C9
:1024C000A8E4B3E48DAB9EABAFABB8AF6DA97EA96A
:1024D0008FA998AD20E030E04AEF54E40E941F023B
:1024E000DC01CB0189AB9AABABABBCAB69A97AA9D8
:1024F0008BA99CA920E030E040E85FE30E947903CB
:1025000088232CF481E090E098AB8FA73FC069A9A5
:102510007AA98BA99CA920E03FEF4FE757E40E94DE
:10252000190318164CF56DA97EA98FA998AD20E066
:1025300030E040E251E40E941F02DC01CB01BC010B
:10254000CD010E944900DC01CB0198AB8FA70FC0E1
:1025500088EC90E09EA78DA78DA59EA50197F1F729
:102560009EA78DA78FA598A9019798AB8FA78FA538
:1025700098A9009769F77BCF69A97AA98BA99CA92B
:102580000E944900DC01CB0198AB8FA78FA598A9C9
:102590009CA78BA78BA59CA50197F1F79CA78BA760
:1025A00066CF82E464E00E94A60B813009F093C0FC
:1025B000809189008F5F8093890081E06FE00E94A5
:1025C000EF0A809189009AE0692F0E94D314805D00
:1025D0000E94BA0981E060E10E94EF0A80918900BF
:1025E0009AE0692F0E94D314892F805D0E94BA0956
:1025F00080E090E0A8E4B3E48FA398A7A9A7BAA7C6
:102600006FA178A589A59AA520E030E04AEF54E4AF
:102610000E941F02DC01CB018BA39CA3ADA3BEA330
:102620006BA17CA18DA19EA120E030E040E85FE39A
:102630000E94790388232CF481E090E09AA389A377
:102640003FC06BA17CA18DA19EA120E03FEF4FE791
:1026500057E40E94190318164CF56FA178A589A5B7
:102660009AA520E030E040E251E40E941F02DC0124
:10267000CB01BC01CD010E944900DC01CB019AA332
:1026800089A30FC088EC90E098A38F8F8F8D98A1BD
:102690000197F1F798A38F8F89A19AA101979AA327
:1026A00089A389A19AA1009769F7E1CE6BA17CA1CA
:1026B0008DA19EA10E944900DC01CB019AA389A3B0
:1026C00089A19AA19E8F8D8F8D8D9E8D0197F1F797
:1026D0009E8F8D8FCCCE82E465E00E94A60B813068
:1026E00009F093C0809186008F5F8093860082E01E
:1026F00065E00E94EF0A809186009AE0692F0E94AF
:10270000D314805D0E94BA0982E066E00E94EF0A5D
:10271000809186009AE0692F0E94D314892F805DF2
:102720000E94BA0980E090E0A8E4B3E4898F9A8F10
:10273000AB8FBC8F698D7A8D8B8D9C8D20E030E0C6
:102740004AEF54E40E941F02DC01CB018D8B9E8B6B
:10275000AF8BB88F6D897E898F89988D20E030E0AE
:1027600040E85FE30E94790388232CF481E090E045
:102770009C8B8B8B3FC06D897E898F89988D20E0E3
:102780003FEF4FE757E40E94190318164CF5698D87
:102790007A8D8B8D9C8D20E030E040E251E40E94E8
:1027A0001F02DC01CB01BC01CD010E944900DC010C
:1027B000CB019C8B8B8B0FC088EC90E09A8B898B24
:1027C00089899A890197F1F79A8B898B8B899C89E2
:1027D00001979C8B8B8B8B899C89009769F747CEDF
:1027E0006D897E898F89988D0E944900DC01CB011B
:1027F0009C8B8B8B8B899C89988B8F878F859889F5
:102800000197F1F7988B8F8732CE82E466E00E94C1
:10281000A60B813009F093C0809188008F5F809370
:10282000880082E06FE00E94EF0A809188009AE0C1
:10283000692F0E94D314805D0E94BA0982E060E192
:102840000E94EF0A809188009AE0692F0E94D314B9
:10285000892F805D0E94BA0980E090E0A8E4B3E48B
:102860008B879C87AD87BE876B857C858D859E8594
:1028700020E030E04AEF54E40E941F02DC01CB016B
:102880008F839887A987BA876F81788589859A858C
:1028900020E030E040E85FE30E94790388232CF4D5
:1028A00081E090E09E838D833FC06F81788589852C
:1028B0009A8520E03FEF4FE757E40E94190318166E
:1028C0004CF56B857C858D859E8520E030E040E26F
:1028D00051E40E941F02DC01CB01BC01CD010E942A
:1028E0004900DC01CB019E838D830FC088EC90E012
:1028F0009C838B838B819C810197F1F79C838B83D5
:102900008D819E8101979E838D838D819E8100970D
:1029100069F7ADCD6F81788589859A850E944900D8
:10292000DC01CB019E838D838D819E819A83898377
:1029300089819A810197F1F79A83898398CD82E4FE
:1029400067E00E94A60B813009F091CD10928800BB
:102950008091880080938600809186008093890012
:1029600080918900809387000E94670A80E690E04A
:102970000E944B0A81E06AE00E94EF0A88E690E03C
:102980000E944B0A82E061E00E94EF0A80E790E03B
:102990000E944B0A82E06AE00E94EF0A86E790E01C
:1029A0000E944B0A64CD991B79E004C0991F9617C9
:1029B00008F0961B881F7A95C9F7809508952F9285
:1029C0003F924F925F926F927F928F929F92AF92BF
:1029D000BF92CF92DF92EF92FF920F931F93CF930C
:1029E000DF93CDB7DEB7CA1BDB0B0FB6F894DEBFA3
:1029F0000FBECDBF09942A88398848885F846E84C9
:102A00007D848C849B84AA84B984C884DF80EE8012
:102A1000FD800C811B81AA81B981CE0FD11D0FB61B
:102A2000F894DEBF0FBECDBFED010895F894FFCF3F
:102A30004B656D6F3D203000446576203D203000B1
:102A4000416C693D30004162646F3D300000000020
:062A500000000000000080
:00000001FF
